:020000020000FC
:0200000014C02A
:10002A000FE50DBF02E00EBF20E0E0E0F2E0A0E045
:10003A00B1E024902C92A3952395E3952A30C9F731
:10004A00E0E0F2E010E520E040E0C89502D01DD0E3
:10005A00FDCF2490022D0AD01395E39543954A309B
:10006A00C1F70895C895249010E520E0E199FECFE4
:10007A002FBB1EBB0DBBE29AE19A0895E199FECF10
:10008A002FBB1EBBE09A0DB308950000000008952F
:0A009A000F931F931F910F9118950B
:0E0200001F1C6AE9BBC611A59DEE341278568C
:00000001FF
