:020000020000FC
:0200000014C02A
:020012003CC0F0
:10002A000FE50DBF02E00EBFA09AA19ABB9A0DE0A0
:10003A0003BF0FEF0CBF01E009BF40E0C39A60E0C5
:10004A007894FFCF18E0000F10F4A99A01C0A9987C
:10005A0000000000A89A00000000A8981A9599F7D5
:10006A0008950FEFEFDF0FEFEDDF0FEFEBDF6230F9
:10007A0009F460E0E2EBF0E0E60F0491E3DF639558
:10008A0008950F931F930FB70F934395C39902C017
:10009A00C39A05C0433019F4C39840E0E2DF0F91D8
:0E00AA000FBF1F910F911895F9C034127856B0
:00000001FF
