:020000020000FC
:0200000014C02A
:020012004CC0E0
:04001A0056C039C0D3
:10002A000FE50DBF02E00EBFBB9A0DE003BF0FEF55
:10003A000CBF01E009BF00E000BD03E309B908ED08
:10004A000AB906E800E207B90FEA06B900E800BFF4
:10005A000FEE06B920E030E050E060E070E080E3A7
:10006A00580F680F780F7894C39A03D0C39801D0B9
:10007A00FBCF000000000895ECEEF0E0E40F0491DD
:10008A000CB9439508950F931F930FB70F930BB1B4
:10009A0005FF02C014B15CB90F910FBF1F910F91F8
:1000AA0018950F931F930FB70F9300C02395223013
:1000BA0009F420E00F910FBF1F910F9118955D9BD6
:1000CA00FECF3395313031F0323031F0353031F006
:1000DA00D3DF06C06CB904C07CB902C030E040E08E
:0800EA0018950A0D3412785636
:00000001FF
