:020000020000FC
:0200000014C02A
:0200120042C0EA
:02001C002EC0F4
:10002A000FE50DBF02E00EBFBB9A0DE003BF0FEF55
:10003A000CBF01E009BF02E00BB908E10AB906E802
:10004A0000BD00E000BD0CE009B9899A00E207B9D9
:10005A000FEA06B900E800BF0FEE06B920E078946F
:10006A00C39A03D0C39801D0FBCF000000000895C3
:10007A000F931F930FB70F930BB105FF03C014B172
:10008A0005B10CB90F910FBF1F910F9118950F93DE
:10009A001F930FB70F9300C02395223009F420E075
:1000AA000F910FBF1F910F9118951F1C341278568C
:00000001FF
