:020000020000FC
:1000000014C0189518951895189518951895189561
:10001000189518952AC0189518951895189518953B
:100020001895189518951895189502E00EBF0FE5CC
:100030000DBF00EB07BBC49AC69A01ED0DB901E0F4
:100040000EB900E00FB9789440E050E0C49AC4982B
:1000500006E00FB937D040E051E0B0E0A0E6C49A26
:10006000C49803E00FB92ED0EFCF779BFECF50306E
:1000700019F05130A9F018954395413039F04230CC
:1000800051F04A3059F063956FB9F5CFC49AC498CE
:1000900002E00FB9F0CF00E00FB9EDCFC49AEBCF7B
:1000A0004395413049F0423051F04A30B9F30FB135
:1000B0000D930FEF0FB9DFCF00E00FB9DCCF0FEFDB
:1000C0000FB9D9CF1FEF2FEF34E61A95F1F72A9524
:0800D000E1F73A95D1F708951C
:00000001FF
