:020000020000FC
:0400000014C06BC0FD
:10002A000FE50DBF02E00EBF08EF07BBA09AA19A29
:10003A0070E0789417D011C00FEF34D00FEF32D0A0
:10004A000FEF30D00FEF24E1EFEFF1E0E30F04916F
:10005A0029D02A9536D02030E1F70DD03030E9F397
:10006A00C39AEACF0FEF1ED00FEF1CD00FEF1AD0B2
:10007A0000EC18D008954FEE332723E0416008B30F
:10008A00006F042308BB0000000000B313E0000F58
:10009A0038F41A95E1F7320F440F80F3332701C081
:1000AA00310F089518E0000F10F4A99A01C0A99819
:1000BA0000000000A89A00000000A8981A9599F775
:1000CA0008955FEF4FEF4A95F1F75A95D9F70895DA
:1000DA000F931F930FB70F93E5DF7395C39902C070
:1000EA00C39A04C0743011F4C39870E00F910FBF23
:1000FA001F910F911895F9A4B0999282F8809000F7
:04010A0034127856DD
:00000001FF
