:020000020000FC
:0200000014C02A
:0200120045C0E7
:10002A000FE50DBF02E00EBFA09AA19ABB9A0DE0A0
:10003A0003BF0FEF0CBF01E009BF40E0C39A60E0C5
:10004A0071E07894FFCF18E0000F10F4A99A01C06C
:10005A00A99800000000A89A00000000A8981A9524
:10006A0099F7089514D013D012D06A3009F460E0D9
:10007A00ECEBF0E0E60F0491202FE5DF203C19F4C9
:10008A00C39820E070E0713009F4639508950FEF8A
:10009A00DADF08950F931F930FB70F9300C04395AC
:1000AA00443011F440E0DEDF0F910FBF1F910F9132
:1000BA0018959080F8829299B0A4F9C034127856B3
:00000001FF
