:020000020000FC
:0200000014C02A
:020012005AC0D2
:10002A000FE50DBF02E00EBFA09AA19ABB9A0DE0A0
:10003A0003BF0FEF0CBF01E009BF40E0C39A60E0C5
:10004A0071E0789436D035D034D036D0FFCF5FEF18
:10005A004FEF4A95F1F75A95D9F7089518E0000F2E
:10006A0010F4A99A01C0A99800000000A89A0000FB
:10007A000000A8981A9599F70895703029F419D0B4
:10008A0018D017D019D0089514D013D012D06A30CE
:10009A0009F460E0E6EEF0E0E60F0491202FDEDFDF
:1000AA00203C19F4C39820E070E0713009F463959C
:1000BA0008950FEFD3DF089500ECD0DF08950F9372
:1000CA001F930FB70F9300C04395443011F440E0DB
:1000DA00D4DF0F910FBF1F910F9118959080F8826E
:0A00EA009299B0A4F9C034127856C0
:00000001FF
