:020000020000FC
:1000000014C01895189518951895AFC0189518959F
:10001000189518951895BDC01895DBC018951895BA
:10002000189518951895189518950FE50DBF02E0CD
:100030000EBF00B7036000BF06E808B906E008B9C4
:1000400000E007B901E40EBD09B7006209BF00E096
:1000500000BD03E309B908ED0AB906E800BD899AB5
:10006000BB9A20E040E051E031E080E090E000E029
:1000700010E060E071E0ECE6F2E009D07894FFCFA8
:100080000000000008955D9BFECF5CB90895559176
:10009000543211F0F8DFFBCF40E051E030E008953A
:1000A000323029F45DE05CB940E051E030E0089581
:1000B00032E0F6DF40E030E020E00895E0EEF2E0EC
:1000C000E40F5491543219F05CB9439502C0F0DF4B
:1000D00083E00895E4ECF2E0E40F5491543219F017
:1000E0005CB9439505C0E4DF81E040E000E010E04A
:1000F0000895E0EFF2E0E40F5491543219F05CB946
:10010000439501C0D5DF0895E2EBF2E0E40F54918E
:10011000543219F05CB9439501C0CADF0895E199E2
:10012000FECF7FBB6EBB5DBBE29AE19A0895E19979
:10013000FECF7FBB6EBBE09A5DB3952F0895603014
:1001400009F401C060E0F3DF5F3F21F05FEFE7DF1C
:100150006395F9CF08955F3F29F0503118F0505161
:100160001395F9CF052F50E008950F931F930FB704
:100170000F93833009F008C00BB105FFFDCF06B522
:10018000502FCDDF639500C00F910FBF1F910F91CE
:1001900018955F9BFECF01E35CB1501739F00395D2
:1001A000501739F00395501731F008C021E083E073
:1001B00008C022E006C023E0C2DF03C024E001C083
:1001C00080E08130E9F340E032E060E05CB97894AF
:1001D00018955D9BFECF323059F0213059F0223016
:1001E00059F02330F1F12430F1F1813041F03DC07C
:1001F00057DF3BC063DF39C06DDF60E036C0603081
:1002000041F09F3F91F1403021F04ADF40FD40E056
:100210002CC0503009F40DC08ADF5F3F31F19BDF05
:1002200050E3150F1A3310F057E0150F50E01CB9CA
:100230001CC050E3050F0A3310F057E0050F0CB94E
:1002400041E032E0639551E000E010E00EC0813003
:1002500009F00BC040E02CDF813009F006C080E0DF
:1002600004C047DF02C050DF00C0189531202D20A8
:1002700073746172742074696D65722C2032202D44
:100280002073746F702074696D657220616E6420D4
:100290007072696E7420646174612C2033202D208B
:1002A000636C65617220646174612E204B65793ADC
:1002B0002024496E76616C6964206B657920636FD8
:1002C00064652E2454696D65722073746F70706557
:1002D000642E20536176656420646174613A202441
:1002E00054696D657220737461727465642E2400A4
:0E02F0004461746120636C65617265642E2444
:00000001FF
