:020000020000FC
:1000000014C0189518951895189544C0189518950A
:100010001895189518954BC018954CC018951895BB
:10002000189518951895189518950FE50DBF02E0CD
:100030000EBF00B7036000BF06E808B906E008B9C4
:1000400000E007B901E40EBD09B7006209BF00E096
:1000500000BD03E309B908ED0AB906E800BD899AB5
:10006000BB9A21E030E0EAEBF0E00DD07894C39A3F
:1000700003D0C39801D0FBCF0000000008955D9B22
:10008000FECF1CB908951591103011F0F8DFFBCFA9
:10009000FFCF08950F931F930FB70F930BB105FF79
:1000A000FDCF06B50F910FBF1F910F9118955F9B64
:1000B000FECF18955D9BFECF18954B657920566154
:1000C0006C7565733A2031202D2073746172742031
:1000D00074696D65722C2032202D2073746F70202E
:1000E00074696D657220616E64207072696E74202F
:1000F000646174612C2033202D20636C6561722053
:10010000646174612E20506C656173652C20656E8E
:0A011000746572206B65793A2000D7
:00000001FF
