:020000020000FC
:1000000014C01895189518951895AFC0189518959F
:10001000189518951895BDC01895DBC018951895BA
:10002000189518951895189518950FE50DBF02E0CD
:100030000EBF00B7036000BF06E808B906E008B9C4
:1000400000E007B901E40EBD09B7006209BF00E096
:1000500000BD03E309B908ED0AB906E800BD899AB5
:10006000BB9A20E040E051E031E080E090E000E029
:1000700010E060E071E0E8E5F2E009D07894FFCFAD
:100080000000000008955D9BFECF5CB90895559176
:10009000543211F0F8DFFBCF40E051E030E008953A
:1000A000323029F45DE05CB940E051E030E0089581
:1000B00032E0F6DF40E030E020E00895EAEDF2E0E3
:1000C000E40F5491543219F05CB9439502C0F0DF4B
:1000D00083E00895EEEBF2E0E40F5491543219F00E
:1000E0005CB9439505C0E4DF81E040E000E010E04A
:1000F0000895EAEEF2E0E40F5491543219F05CB93D
:10010000439501C0D5DF0895ECEAF2E0E40F549185
:10011000543219F05CB9439501C0CADF0895E199E2
:10012000FECF7FBB6EBB5DBBE29AE19A0895E19979
:10013000FECF7FBB6EBBE09A5DB3952F0895603014
:1001400009F401C060E0F3DF5F3F21F05FEFE7DF1C
:100150006395F9CF08955F3F29F0503118F0505161
:100160001395F9CF052F50E008950F931F930FB704
:100170000F93833009F008C00BB105FFFDCF06B522
:10018000502FCDDF639500C00F910FBF1F910F91CE
:1001900018955F9BFECF01E35CB1501739F00395D2
:1001A000501739F00395501731F008C021E083E073
:1001B00008C022E006C023E0C2DF03C024E001C083
:1001C00080E08130E9F340E032E060E05CB97894AF
:1001D00018955D9BFECF323059F0213059F0223016
:1001E00059F02330A1F12430A1F1813041F033C026
:1001F00057DF31C063DF2FC06DDF60E02CC060309F
:1002000041F09F3F41F1403021F04ADF40FD40E0A6
:1002100022C0503009F409C08ADF5F3FE1F09BDF64
:1002200050E3150F50E01CB916C050E3050F0CB990
:1002300041E032E0639551E00EC0813009F00BC01F
:1002400040E036DF813009F006C080E004C051DFB5
:1002500002C05ADF00C0189556616C7565733A206C
:1002600031202D2073746172742074696D65722C55
:100270002032202D2073746F702074696D65722098
:10028000616E64207072696E7420646174612C20E8
:1002900033202D20636C65617220646174612E20AF
:1002A000456E746572206B65793A2024496E7661DB
:1002B0006C6964206B657920636F64652E245469D2
:1002C0006D65722073746F707065642E2053617653
:1002D000656420646174613A202454696D657220FC
:1002E000737461727465642E2400446174612063C8
:0802F0006C65617265642E2447
:00000001FF
