:020000020000FC
:1000000014C01895189518951895B1C0189518959D
:1000100018952DC11895BFC01895DCC01895189576
:10002000189518951895189518950FE50DBF02E0CD
:100030000EBF00B7036000BF06E808B906E008B9C4
:1000400000E007B901E40EBD0DE003BF0FEF0CBFE8
:1000500009B7016209BF00E000BD03E309B908ED7B
:100060000AB906E800BD899ABB9A20E040E051E059
:1000700031E080E090E000E010E0F02E60E071E020
:10008000E0E8F2E006D07894FFCF5D9BFECF5CB94C
:1000900008955591543211F0F8DFFBCF40E051E064
:1000A00030E00895323029F45DE05CB940E051E081
:1000B00030E0089532E0F6DF40E030E020E00895DF
:1000C000E6ECF2E0E40F5491543219F05CB9439538
:1000D00002C0F0DF83E00895E8EBF2E0E40F549112
:1000E000543219F05CB9439505C0E4DF81E040E08B
:1000F00000E010E00895EEECF2E0E40F5491543289
:1001000019F05CB9439501C0D5DF0895E6EAF2E045
:10011000E40F5491543219F05CB9439501C0CADF21
:100120000895E199FECF7FBB6EBB5DBBE29AE19A79
:100130000895E199FECF7FBB6EBBE09A5DB3952F2A
:100140000895603009F401C060E0F3DF5F3F21F003
:100150005FEFE7DF6395F9CF08955F3F29F05031F6
:1001600018F050511395F9CF052F50E008950F93D3
:100170001F930FB70F93833009F008C00BB105FF31
:10018000FDCF06B5502FCDDF639500C00F910FBF97
:100190001F910F9118955F9BFECF01E35CB15CB995
:1001A000501739F00395501739F00395501731F077
:1001B00008C021E083E008C022E006C023E0C1DFE0
:1001C00003C024E001C080E08130E9F340E032E088
:1001D00060E018955D9BFECF323059F0213059F028
:1001E000223059F02330F1F12430F1F1813041F027
:1001F0003DC058DF3BC064DF39C06EDF60E036C011
:10020000603041F09F3F91F1403021F04BDF40FDE5
:1002100040E02CC0503009F40DC08BDF5F3F31F15E
:100220009CDF50E3150F1A3310F057E0150F50E024
:100230001CB91CC050E3050F0A3310F057E0050F3E
:100240000CB941E032E0639551E000E010E00EC0EF
:10025000813009F00BC040E02DDF813009F006C08D
:1002600080E004C048DF02C051DF00C018950F9342
:100270001F930FB70F930F910FBF1F910F911895F9
:100280005374617274202D20312C2053746F7020B0
:100290002D20322C20436C656172202D20332E20BE
:1002A0004B65793A2024496E76616C6964206B65F0
:1002B0007920636F64652E2453746F702E2044611F
:1002C00074613A20240053746172742E2400436CCC
:0602D0006561722E24009E
:00000001FF
