:020000020000FC
:1000000014C01895189518951895B1C0189518959D
:10001000189546C11895C8C01895EDC01895189543
:10002000189518951895189518950FE50DBF02E0CD
:100030000EBF00B7036000BF06E808B906E008B9C4
:1000400000E007B901E40EBD0DE003BF0FEF0CBFE8
:1000500009B7016209BF00E000BD03E309B908ED7B
:100060000AB906E800BD899ABB9A20E040E051E059
:1000700031E080E090E000E010E0F02E60E071E020
:10008000EAECF2E006D07894FFCF5D9BFECF5CB93E
:1000900008955591543211F0F8DFFBCF40E051E064
:1000A00030E00895323029F45DE05CB940E051E081
:1000B00030E0089532E0F6DF40E030E020E00895DF
:1000C000E0E1F3E0E40F5491543219F05CB9439548
:1000D00002C0F0DF83E00895E2E0F3E0E40F549122
:1000E000543219F05CB9439505C0E4DF81E040E08B
:1000F00000E010E00895E8E1F3E0E40F5491543299
:1001000019F05CB9439501C0D5DF0895E0EFF2E046
:10011000E40F5491543219F05CB9439501C0CADF21
:100120000895E199FECF7FBB6EBB5DBBE29AE19A79
:100130000895E199FECF7FBB6EBBE09A5DB3952F2A
:100140000895603009F401C060E0F3DF5F3F21F003
:100150005FEFE7DF6395F9CF08955F3F29F05031F6
:1001600018F050511395F9CF052F50E008950F93D3
:100170001F930FB70F93833009F011C00BB105FF28
:10018000FDCF11E0E11659F006B5512F5A3139F083
:100190005B3129F0C6DF639511E0E12E00C00F91BD
:1001A0000FBF1F910F9118950F931F930FB70F93C8
:1001B0005F9BFACF01E35CB15CB9501739F003954E
:1001C000501739F00395501731F008C021E083E053
:1001D00008C022E006C023E0B4DF03C024E001C071
:1001E00080E08130E9F340E032E060E00F910FBF42
:1001F0001F910F9118950F931F930FB70F935D9B4E
:10020000FACF323059F0213059F0223059F02330F2
:10021000F1F12430F1F1813041F03DC043DF3BC0CA
:100220004FDF39C059DF60E036C0603041F09F3F9A
:1002300091F1403021F036DF40FD40E02CC05030DD
:1002400009F40DC076DF5F3F31F187DF50E3150F12
:100250001A3310F057E0150F50E01CB91CC050E3E2
:10026000050F0A3310F057E0050F0CB941E032E0FA
:10027000639551E000E010E00EC0813009F00BC042
:1002800040E018DF813009F006C080E004C033DFB1
:1002900002C03CDF00C00F910FBF1F910F91189556
:1002A0000F931F930FB70F930EE1F01641F400E088
:1002B000F02EE02EC39B02C0C39801C0C39AF394F2
:1002C0000F910FBF1F910F91189553746172742095
:1002D0002D20312C2053746F70202D20322C204380
:1002E0006C656172202D20332E204B65793A2024D5
:1002F000496E76616C6964206B657920636F646513
:100300002E2453746F702E20446174613A202400AF
:1003100053746172742E2400436C6561722E240044
:00000001FF
