:020000020000FC
:1000000014C0189518951895189580C018951895CE
:1000100018951895189587C018959FC0189518952C
:10002000189518951895189518950FE50DBF02E0CD
:100030000EBF00B7036000BF06E808B906E008B9C4
:1000400000E007B901E40EBD09B7006209BF00E096
:1000500000BD03E309B908ED0AB906E800BD899AB5
:10006000BB9A21E030E050E060E041E0EAE8F1E0F6
:1000700009D07894FFCF0000000008955D9BFECF6B
:100080006CB908956591643211F0F8DFFBCF50E050
:1000900060E040E00895423029F46DE06CB950E032
:1000A00060E040E0089542E0F6DF50E060E040E0CC
:1000B00030E00895E0E0F2E0E50F6491643219F079
:1000C0006CB9539501C0EFDF0895E0EFF1E0E50F63
:1000D0006491643219F06CB9539501C0E4DF08955E
:1000E000E0E1F2E0E50F6491643219F06CB95395E8
:1000F00001C0D9DF0895EEEDF1E0E50F64916432BF
:1001000019F06CB9539501C0CEDF08950F931F937A
:100110000FB70F930BB105FFFDCF06B50F910FBFC2
:100120001F910F9118955F9BFECF01E36CB1601793
:1001300039F00395601731F00395601729F006C078
:1001400031E006C032E004C033E002C034E000C059
:1001500050E042E06CB9789418955D9BFECF423038
:1001600049F0313049F0323049F0333049F0343021
:1001700049F00AC090DF08C09DDF06C0A6DF04C0BA
:10018000AFDF02C0B8DF00C0189556616C756573AB
:100190003A2031202D2073746172742074696D656A
:1001A000722C2032202D2073746F702074696D655D
:1001B0007220616E64207072696E74206461746173
:1001C0002C2033202D20636C656172206461746182
:1001D0002E20456E746572206B65793A2024496E35
:1001E00076616C6964206B657920636F64652E2489
:1001F00054696D65722073746F707065642E24008D
:1002000054696D657220737461727465642E240084
:1002100054696D657220636C65617265642E24009B
:00000001FF
