:020000020000FC
:1000000014C0189518951895189534C0189518951A
:100010001895189518951895189518951895189578
:10002000189518951895189518950FE50DBF02E0CD
:100030000EBF00B7036000BF06E808B906E008B9C4
:1000400000E007B901E40EBD09B7006209BF00E096
:1000500000BD03E309B908E10AB906E8899ABB9A29
:10006000BB9A7894C39A03D0C39801D0FBCF000009
:10007000000008950F931F930FB70F930BB105FF67
:10008000FDCF06B501E30CB50CB90F910FBF1F9161
:0A0090000F9118951F1C34127856CA
:00000001FF
