:020000020000FC
:1000000014C01895189518951895A2C018951895AC
:10001000189518951895B0C01895CEC018951895D4
:10002000189518951895189518950FE50DBF02E0CD
:100030000EBF00B7036000BF06E808B906E008B9C4
:1000400000E007B901E40EBD09B7006209BF00E096
:1000500000BD03E309B908ED0AB906E800BD899AB5
:10006000BB9A20E040E050E031E080E090E060E0CA
:1000700071E0EAE2F2E009D07894FFCF00000000DE
:1000800008955D9BFECF5CB908955591543211F0EF
:10009000F8DFFBCF40E050E030E00895323029F443
:1000A0005DE05CB940E050E030E0089532E0F6DF1A
:1000B00040E050E030E020E00895ECEAF2E0E40FA8
:1000C0005491543219F05CB9439502C0EFDF83E0DC
:1000D0000895E0E9F2E0E40F5491543219F05CB96C
:1000E000439503C0E3DF81E040E00895ECEBF2E0EC
:1000F000E40F5491543219F05CB9439501C0D6DF36
:100100000895EEE7F2E0E40F5491543219F05CB92F
:10011000439501C0CBDF0895E199FECF7FBB6EBB55
:100120005DBBE29AE19A0895E199FECF7FBB6EBB79
:10013000E09A5DB3952F0895603009F401C060E046
:10014000F3DF5F3F21F05FEFE7DF6395F9CF0895BD
:100150000F931F930FB70F93833009F008C00BB1B3
:1001600005FFFDCF06B5502FD7DF639500C00F9177
:100170000FBF1F910F9118955F9BFECF01E35CB1FC
:10018000501739F00395501739F00395501731F097
:1001900008C021E083E008C022E006C023E0CCDFF5
:1001A00003C024E001C080E08130E9F340E032E0A8
:1001B00060E05CB9789418955D9BFECF323059F0C1
:1001C000213059F0223059F0233051F1243051F1CF
:1001D000813041F029C062DF27C06FDF25C079DFA1
:1001E00060E022C0603041F09F3FF1F0403021F0EC
:1001F00055DF40FD40E018C097DF5F3FA9F000E009
:10020000500F5CB941E032E063950EC0813009F0D7
:100210000BC040E04BDF813009F006C080E004C035
:1002200065DF02C06EDF00C0189556616C7565739E
:100230003A2031202D2073746172742074696D65C9
:10024000722C2032202D2073746F702074696D65BC
:100250007220616E64207072696E742064617461D2
:100260002C2033202D20636C6561722064617461E1
:100270002E20456E746572206B65793A2024496E94
:1002800076616C6964206B657920636F64652E24E8
:1002900054696D65722073746F707065642E20539D
:1002A0006176656420646174613A202454696D65E7
:1002B0007220737461727465642E240044617461E9
:0A02C00020636C65617265642E24F2
:00000001FF
