:020000020000FC
:1000000014C0189518951895189597C018951895B7
:10001000189518951895A5C01895C1C018951895EC
:10002000189518951895189518950FE50DBF02E0CD
:100030000EBF00B7036000BF06E808B906E008B9C4
:1000400000E007B901E40EBD09B7006209BF00E096
:1000500000BD03E309B908ED0AB906E800BD899AB5
:10006000BB9A20E040E050E031E080E090E060E1C9
:1000700071E0E0E1F2E009D07894FFCF00000000E9
:1000800008955D9BFECF5CB908955591543211F0EF
:10009000F8DFFBCF40E050E030E00895323029F443
:1000A0005DE05CB940E050E030E0089532E0F6DF1A
:1000B00040E050E030E020E00895E2E9F2E0E40FB3
:1000C0005491543219F05CB9439502C0EFDF83E0DC
:1000D0000895E6E7F2E0E40F5491543219F05CB968
:1000E000439503C0E3DF81E040E00895E2EAF2E0F7
:1000F000E40F5491543219F05CB9439502C0D6DF35
:1001000082E00895E4E6F2E0E40F5491543219F0ED
:100110005CB9439501C0CADF0895E199FECF7FBB6A
:100120006EBB5DBBE29AE19A0895E199FECF7FBB79
:100130006EBBE09A5DB3952F08950F931F930FB791
:100140000F93833009F008C00BB105FFFDCF06B552
:10015000502FE3DF639500C00F910FBF1F910F91E8
:1001600018955F9BFECF01E35CB1501739F0039502
:10017000501739F00395501731F007C021E083E0A4
:1001800007C022E005C023E003C024E001C080E0F6
:100190008130E9F340E032E05CB9789418955D9BDA
:1001A000FECF323059F0213059F0223059F023304F
:1001B00051F1243051F1813041F029C06FDF27C067
:1001C0007CDF25C086DF60E122C0603141F09F3FC7
:1001D000F1F0403021F062DF40FD40E018C0A5DFC3
:1001E0005F3FA9F000E0500F5CB941E032E0639559
:1001F0000EC0813009F00BC040E058DF813009F0BB
:1002000006C080E004C072DF02C07CDF00C0189529
:1002100056616C7565733A2031202D2073746172BC
:10022000742074696D65722C2032202D2073746FD8
:10023000702074696D657220616E64207072696EE1
:100240007420646174612C2033202D20636C6561FF
:100250007220646174612E20456E746572206B6536
:10026000793A2024496E76616C6964206B65792047
:10027000636F64652E2454696D65722073746F70AA
:100280007065642E20536176656420646174613A00
:10029000202454696D657220737461727465642ED4
:1002A00024004461746120636C65617265642E246E
:00000001FF
