:020000020000FC
:1000000014C0189518951895189552C018951895FC
:1000100018951895189559C0189570C01895189589
:10002000189518951895189518950FE50DBF02E0CD
:100030000EBF00B7036000BF06E808B906E008B9C4
:1000400000E007B901E40EBD09B7006209BF00E096
:1000500000BD03E309B908ED0AB906E800BD899AB5
:10006000BB9A21E030E050E060E0E6E2F1E006D04B
:100070007894FFCF00000000089508951591143280
:1000800011F0FBDFFBCF00E010E00895EAE7F1E0BC
:10009000E50F6491643211F06CB953950895EAE666
:1000A000F1E0E50F6491643211F06CB95395089555
:1000B0000F931F930FB70F930BB105FFFDCF06B53D
:1000C0000F910FBF1F910F9118955F9BFECF01E31A
:1000D0006CB1601739F00395601731F00395601724
:1000E00029F006C031E006C032E004C033E002C0AF
:1000F00034E000C06CB950E0789418955D9BFECF59
:10010000303081F0603019F4313029F00BC06432A6
:1001100031F0BCDF07C0643211F0C1DF03C050E032
:1001200060E000C018953D3A2024496E76616C6904
:1001300064206B657920636F64652E2056616C695D
:1001400064206B6579733A20312C20322C20332EB9
:10015000240054696D65722073746F707065642E2D
:1001600020526573756C743A202454696D65722051
:0E017000737461727465642E24000A0D000021
:00000001FF
